:100000005CC0000082C0000080C000007EC0000014
:100010007CC000007AC0000078C0000076C00000FC
:1000200074C0000072C0000070C000006EC000000C
:100030006CC000000C94D00D68C0000066C00000C9
:100040000C94951062C000000C944C130C947E1319
:100050005CC000005AC0000058C0000056C000003C
:1000600054C0000052C0000000000008000201005F
:100070000003040700000000000000000102040863
:100080001020408001020408102001020408102002
:10009000040404040404040402020202020203032E
:1000A0000303030300000000250028002B000000CC
:1000B0000000240027002A00A31311241FBECFEF45
:1000C000D8E0DEBFCDBF11E0A0E0B1E0EEE4F8E2A1
:1000D00002C005900D92AA3BB107D9F724E0AAEB24
:1000E000B1E001C01D92AD38B207E1F710E0CDE5F7
:1000F000D0E004C02197FE010E941F14CC35D10727
:10010000C9F70E94330E0C9425147ACFCF93DF9356
:10011000882349F0EB0181500E941A11998388834A
:10012000DF91CF910895FB0111821082F9CF0F93D7
:100130001F938B019C0183E03695279517950795B2
:100140008A95D1F70D531E4F462F477021E030E0BE
:10015000F90102C0EE0FFF1F4A95E2F7AF01F80167
:1001600020812423CB010196211102C090E080E080
:100170001F910F9108950F931F938B019C0183E0B2
:1001800036952795179507958A95D1F7677081E081
:1001900090E001C0880F6A95EAF7F801ED53FE4F31
:1001A0002081452B31F48095822380831F910F910C
:1001B0000895822BFACFCF92DF92EF92FF92CF93E6
:1001C000DF936B017C0160E08EE0C816D104E1048E
:1001D000F10490F48EE08C0D0E94B911E601219695
:1001E000AE01C701B601C7DFCE01DF91CF91FF900D
:1001F000EF90DF90CF9008958C2DEECF882341F0C3
:100200008150682F70E090E080E050E040E0B3CF94
:100210000895611102C00C94B9116130E1F362E0FC
:10022000FACF662319F061E00C94F51160E0FCCF81
:10023000CF92DF92EF92FF92CF93882351F16A0120
:100240007B01CFEFC80F20E030E0A901CB01B60160
:100250000E94F40E87FF11C0C701B60190580E949A
:10026000FD0E9B01AC016C2F70E090E080E0CF911F
:10027000FF90EF90DF90CF90B2C0C701B6010E940F
:10028000F80E8C2FCF91FF90EF90DF90CF900C94D1
:100290003511CF91FF90EF90DF90CF9008950F939D
:1002A0001F938B019C0183E0369527951795079541
:1002B0008A95D1F706541E4F462F477021E030E053
:1002C000F90102C0EE0FFF1F4A95E2F7AF01F801F6
:1002D00020812423CB010196211102C090E080E00F
:1002E0001F910F9108950F931F938B019C0183E041
:1002F00036952795179507958A95D1F7677081E010
:1003000090E001C0880F6A95EAF7F801E654FE4FC5
:100310002081452B31F48095822380831F910F919A
:100320000895822BFACF2F923F924F925F926F9255
:100330007F928F929F92AF92BF92CF92DF92EF9275
:10034000FF920F931F93CF93DF93D62EC72E782E55
:10035000692E49015A01280161E08D2D0E94B911D1
:10036000CD2DDC2D8E010F5F1F4FA8016D2D7C2D33
:10037000872D962DB8DF20E030E0A901C201B7013A
:100380000E942E10181664F4C201B7010E94FD0EDF
:100390002B01C501B4010E94FD0EA201CE0123D0A4
:1003A000C801DF91CF911F910F91FF90EF90DF90E7
:1003B000CF90BF90AF909F908F907F906F905F9005
:1003C0004F903F902F900895882341F08150682FDF
:1003D00070E090E080E050E040E085CF0895862F07
:1003E000B9010C9435119C01FC01E859FF4FE491CF
:1003F000E33061F140F4E13011F1E23021F160E0ED
:10040000822F0C94F511E730C1F1E83009F441C0B6
:10041000E430A9F7809180008C7F82608093800017
:1004200090918100907E9061692B60938100509340
:100430008700409386008091800080621BC084B555
:10044000806884BDDCCF84B58062FBCF8091800062
:100450008C7F82608093800090918100907E90617B
:10046000692B6093810050938700409386008091B0
:100470008000806880938000C2CF8091B000806847
:100480008093B0008091B100887F682B6093B100A9
:10049000B6CF8091B0008062F3CF8F929F92AF92DF
:1004A000BF92CF92DF92EF92FF920F931F93CF9361
:1004B000DF936B017C014A015901E80120E030E043
:1004C000A9010E942E101816FCF480E090E0A0E82C
:1004D000BFE3F40180839183A283B383F50110828B
:1004E000118212821382C882D982EA82FB82DF9152
:1004F000CF911F910F91FF90EF90DF90CF90BF9021
:10050000AF909F908F900895F40110821182128213
:10051000138280E090E0A0E8BFE3F501808391833F
:10052000A283B383F7FAF094F7F8F094DCCFCF927C
:10053000DF92EF92FF926B017C019F7720E030E029
:1005400040E859E50E94F40E87FF2BC020E030E020
:1005500040E05FE3C701B6010E942E1087FD0EC088
:1005600020E030E040E05FE3C701B6010E947D0E6D
:10057000FF90EF90DF90CF900C94660F20E030E07A
:1005800040E05FEBC701B6010E942E10181684F4FC
:1005900020E030E0A901C701B6010E9432106B01D2
:1005A0007C01C701B601FF90EF90DF90CF900895D6
:1005B00020E030E040E05FE3C701B6010E947C0E1E
:1005C000FF90EF90DF90CF900C94E10EEF92FF92AE
:1005D0000F931F93CF93DF93C0915602D091570290
:1005E00083EEE82E83E0F82EF701208131814281ED
:1005F0005381609154017091550180915601909101
:1006000057010E9432100DEB13E0F801228D338D5B
:10061000448D558D0E947D0E688379838A839B83E8
:10062000F80186819781A085B1858C839D83AE83F7
:10063000BF8382819381A481B58188879987AA87A6
:10064000BB87F7012485358546855785609168010C
:100650007091690180916A0190916B010E94321042
:10066000F801268D378D40A151A10E947D0E6C8727
:100670007D878E879F87F80186859785A089B189B8
:10068000888B998BAA8BBB8B82859385A485B58536
:100690008C8B9D8BAE8BBF8BF701208D318D428D66
:1006A000538D6091800170918101809182019091C0
:1006B00083010E943210F80122A133A144A155A167
:1006C0000E947D0E688F798F8A8F9B8FF8018689B3
:1006D0009789A08DB18D8C8F9D8FAE8FBF8F8289B2
:1006E0009389A489B58988A399A3AAA3BBA3DF9101
:1006F000CF911F910F91FF90EF9008952F923F920D
:100700004F925F926F927F928F929F92AF92BF9221
:10071000CF92DF92EF92FF920F931F93CF93DF93CD
:10072000CDB7DEB7EC970FB6F894DEBF0FBECDBFE6
:1007300080910703909108038130910509F0FFC073
:100740006091FB027091FC028091FD029091FE028B
:100750006F5F7F4F8F4F9F4F0E94290F2091FF02A5
:100760003091000340910103509102030E94321026
:100770006093DA017093DB018093DC019093DD01DB
:100780002091E3033091E4034091E5035091E603A7
:10079000609158017091590180915A0190915B01CB
:1007A0000E9432109B01AC0160915C0170915D016F
:1007B00080915E0190915F010E947C0E6B017C0133
:1007C000CD82DE82EF82F8864090E7035090E80306
:1007D0006090E9037090EA0349865A866B867C86AE
:1007E0008090EB039090EC03A090ED03B090EE03AB
:1007F0008D869E86AF86B88A2091000130910101D6
:1008000040910201509103010E943210A501940110
:100810000E947C0E209130013091310140913201D3
:10082000509133010E9432104B015C018092BF0352
:100830009092C003A092C103B092C20320913C01E8
:1008400030913D0140913E0150913F01C701B601F9
:100850000E943210A30192010E947D0EA501940115
:100860000E947D0E8E01075F1F4F9E01235F3F4F49
:10087000AE014F5F5F4F11DE69817A818B819C8170
:1008800056DE6B017C0120E030E040E853E40E943A
:10089000F40E6FEF87FF0EC020E030E0A901C70122
:1008A000B6010E942E1060E087FD04C0C701B601AA
:1008B0000E94FD0E8CE0B5DC6D857E858F85988964
:1008C00036DE6B017C0120E030E040E853E40E941A
:1008D000F40E6FEF87FF0EC020E030E0A901C701E2
:1008E000B6010E942E1060E087FD04C0C701B6016A
:1008F0000E94FD0E8DE095DC6BE070E080E090E002
:10090000CEDC8C019093720480937104C0906001DE
:10091000D0906101E0906201F090630189849A8433
:10092000AB84BC84A5019401C701B6010E94F40EFA
:1009300087FF1CC0C986DA86EB86FC8627C0892B18
:1009400009F01ECFE0910A02F0910B020190F081B4
:10095000E02D80819181A281B381E0910A03F09121
:100960000B0380839183A283B3830ACFC090640179
:10097000D0906501E0906601F0906701A7019601B3
:10098000C501B4010E94F40E87FDD4CF20E030E011
:100990004FE753E469857A858B859C850E94F40E28
:1009A000181644F480E090E0AFE7B3E489879A87B3
:1009B000AB87BC8720E030E0A90169857A858B850B
:1009C0009C850E942E1087FF04C019861A861B86FC
:1009D0001C8649855A856B857C85C80129DC2D815B
:1009E0003E814F81588560910C0170910D0180917D
:1009F0000E0190910F010E9432106093C303709317
:100A0000C4038093C5039093C6032091EF033091F4
:100A1000F0034091F1035091F20360916C017091E9
:100A20006D0180916E0190916F010E9432102091B2
:100A300070013091710140917201509173010E94D7
:100A40007C0E9B01AC0160917401709175018091E5
:100A50007601909177010E947C0E6B017C01CD861E
:100A6000DE86EF86F88A4090F3035090F40360909E
:100A7000F5037090F60349865A866B867C868090D3
:100A8000F7039090F803A090F903B090FA038D82D9
:100A90009E82AF82B8862091040130910501409179
:100AA0000601509107010E943210A50194010E9495
:100AB0007C0E2091340130913501409136015091E6
:100AC00037010E9432104B015C018092C703909263
:100AD000C803A092C903B092CA032091400130918B
:100AE00041014091420150914301C701B6010E946A
:100AF0003210A30192010E947D0EA50194010E9473
:100B00007D0E8E010B5F1F4F9E01275F3F4FAE0191
:100B10004F5F5F4FC2DC69817A818B819C8107DDE9
:100B20006B017C0120E030E040E853E40E94F40EC9
:100B30006FEF87FF0EC020E030E0A901C701B601CA
:100B40000E942E1060E087FD04C0C701B6010E941C
:100B5000FD0E87E066DB69857A858B859C85E7DC01
:100B60006B017C0120E030E040E853E40E94F40E89
:100B70006FEF87FF0EC020E030E0A901C701B6018A
:100B80000E942E1060E087FD04C0C701B6010E94DC
:100B9000FD0E88E046DB66E070E080E090E07FDB01
:100BA0008C0190936A0480936904C0907801D0907E
:100BB0007901E0907A01F0907B018D809E80AF807A
:100BC000B884A5019401C701B6010E94F40E87FF05
:100BD00005C0CD82DE82EF82F88610C0C0907C0115
:100BE000D0907D01E0907E01F0907F01A7019601F9
:100BF000C501B4010E94F40E87FDEBCF20E030E088
:100C00004FE753E46D817E818F8198850E94F40EB9
:100C1000181644F480E090E0AFE7B3E48D839E8340
:100C2000AF83B88720E030E0A9016D817E818F819C
:100C300098850E942E1087FF04C01D821E821F828D
:100C400018864D815E816F817885C801F1DA2D8526
:100C50003E854F85588960911001709111018091F6
:100C60001201909113010E9432106093CB03709394
:100C7000CC038093CD039093CE032091FB0330915E
:100C8000FC034091FD035091FE036091840170913B
:100C9000850180918601909187010E9432109B010D
:100CA000AC01609188017091890180918A019091D5
:100CB0008B010E947C0E6B017C01CD86DE86EF8667
:100CC000F88A4090FF0350900004609001047090F7
:100CD000020449865A866B867C8680900304909035
:100CE0000404A0900504B09006048D829E82AF8219
:100CF000B886209108013091090140910A01509174
:100D00000B010E943210A5019401F6D72091380101
:100D10003091390140913A0150913B010E943210CB
:100D20004B015C018092CF039092D003A092D1033B
:100D3000B092D20320914401309145014091460187
:100D400050914701C701B6010E943210A3019201E0
:100D5000D4D7A5019401D1D78E010F5F1F4F9E01FB
:100D60002B5F3F4FAE01475F5F4F97DB69857A8509
:100D70008B859C85DCDB6B017C0120E030E040E86A
:100D800053E40E94F40E6FEF87FF0EC020E030E0C6
:100D9000A901C701B6010E942E1060E087FD04C0C2
:100DA000C701B6010E94FD0E82E03BDA6D817E81B3
:100DB0008F819885BCDB6B017C0120E030E040E84E
:100DC00053E40E94F40E6FEF87FF0EC020E030E086
:100DD000A901C701B6010E942E1060E087FD04C082
:100DE000C701B6010E94FD0E84E01BDA63E070E0EB
:100DF00080E090E054DA8C01909362048093610467
:100E0000C0908C01D0908D01E0908E01F0908F0108
:100E100089809A80AB80BC80A5019401C701B6018E
:100E2000E3D787FF05C0C982DA82EB82FC820FC05C
:100E3000C0909001D0909101E0909201F0909301C8
:100E4000A7019601C501B401CFD787FDECCF20E003
:100E500030E04FE753E469817A818B819C81C4D76C
:100E6000181644F480E090E0AFE7B3E489839A83F6
:100E7000AB83BC8320E030E0A90169817A818B815A
:100E80009C810E942E1087FF04C019821A821B8247
:100E90001C8249815A816B817C81C801C9D92D8509
:100EA0003E854F855889609114017091150180919C
:100EB0001601909117010E9432106093D303709332
:100EC000D4038093D5039093D60380910703909128
:100ED0000803019709F0E0C0C0904801D090490193
:100EE000E0904A01F0904B01A70196016091270420
:100EF000709128048091290490912A0475D7882341
:100F000041F0C0922704D0922804E0922904F09284
:100F10002A046FE070E080E090E009D99093260405
:100F20008093250423E030E03093BE032093BD037B
:100F300043E050E0BE016F5E7F4FE8D869897A894F
:100F400090E080E086D79B01AC01609194017091A4
:100F5000950180919601909197010E9432106093C3
:100F6000D7037093D8038093D9039093DA03C0908A
:100F70004C01D0904D01E0904E01F0904F01A7013F
:100F8000960160911B0470911C0480911D04909146
:100F90001E042AD7882341F0C0921B04D0921C045F
:100FA000E0921D04F0921E0460E170E080E090E0A9
:100FB000BED890931A048093190423E030E0309354
:100FC000BE032093BD0343E050E0BE016F5E7F4F40
:100FD0009DD869897A8990E080E03BD79B01AC017C
:100FE000609198017091990180919A0190919B0173
:100FF0000E9432106093DB037093DC038093DD0367
:101000009093DE03C0905001D0905101E0905201C6
:10101000F0905301A701960160910F0470911004A4
:101020008091110490911204DFD6882341F0C09280
:101030000F04D0921004E0921104F092120461E1C6
:1010400070E080E090E073D890930E0480930D04DC
:1010500023E030E03093BE032093BD0343E050E033
:10106000BE016F5E7F4F52D869897A8990E080E037
:10107000F0D69B01AC0160919C0170919D01809123
:101080009E0190919F01EED76093DF037093E00380
:101090008093E1039093E20380910703909108030A
:1010A000019709F0EDC1E0910A02F0910B02019065
:1010B000F081E02D80819181A281B3818DA39EA3D7
:1010C000AFA3B8A78091DA019091DB01A091DC0178
:1010D000B091DD0189AB9AABABABBCABE091DE016B
:1010E000F091DF0180809180A280B380E0910E02B8
:1010F000F0910F0270806180E091D201F091D301F4
:1011000020803180528043801481058196819FA781
:10111000A781A8ABE091D001F091D101118210829A
:1011200084E2E72DF62DD10101900D928A95E1F729
:10113000E0910802F09109025082418247DA20E0F2
:1011400030E040E05FE3C501B4018CD76B017C0166
:101150003AA629A65BA24CA279A26AA2F101B49692
:10116000FCA7EBA77B8A6C8A5D8A4E8A3A8E298E11
:10117000E98DFA8D81919191A191B191FA8FE98FC9
:101180008D8F9E8FAF8FB8A3AD89BE892D913D9174
:101190004D915D91BE8BAD8BC701B60163D72D8D8F
:1011A0003E8D4F8D58A1A9D5EB89FC896193719330
:1011B00081939193FC8BEB8B2BA53CA5898D9A8D0C
:1011C00028173907A9F6E0910A02F0910B02A081D5
:1011D000B181BC8BAB8BA70196016DA17EA18FA1C4
:1011E00098A58BD5EB89FC89608371838283938377
:1011F000E0910802F0910902108301837FDAE6D9B9
:1012000020E030E0A901C501B4012CD76DAB7EAB65
:101210008FAB98AF20E030E040E45FE3C501B4015C
:1012200021D76B017C011B8B0C8B072D162D2B8975
:101230003C893E8F2D8F5D8A4E8AF101819191917B
:10124000A191B1911F018BA79CA7ADA7BEA7AD89A6
:10125000BE896D917D918D919D91BE8BAD8BED8DF4
:10126000FE8D4190519061907190FE8FED8F2DA970
:101270003EA94FA958ADF6D669AF7AAF8BAF9CAFF8
:10128000A7019601C301B201EDD69B01AC0169AD86
:101290007AAD8BAD9CAD31D52BA53CA54DA55EA5FA
:1012A0002CD5D8016D937D938D939D938D01E98D00
:1012B000FA8DE215F30509F0C0CFE0910A02F09132
:1012C0000B0200811181A70196016DA17EA18FA162
:1012D00098A513D5D8016D937D938D939C93139707
:1012E000E0910802F0910902BFA5B08328A92183EB
:1012F00005DA6CD929E33EE843E65EE3C501B401B3
:10130000B1D6698F7A8F8B8F9C8F2BEA3AEA4AEAA3
:101310005EE3C501B401A6D66DA37EA38FA398A7F3
:1013200029E33EE843EE5EE3C501B4019BD66D8F31
:101330007E8F8F8F98A30FA518A9E9A5FAA5819193
:101340009191A191B191FAA7E9A78D8B9E8BAF8B5B
:10135000B88FABA1BCA16D917D918D919D91BCA3E6
:10136000ABA3EB89FC894190519061907190FC8B0B
:10137000EB8BD801CD90DD90ED90FD908D01298D06
:101380003A8D4B8D5C8D6ED64B015C012DA13EA13B
:101390004FA158A5C301B20165D69B01AC01C5019F
:1013A000B401ABD44B015C012D8D3E8D4F8D58A106
:1013B000C701B60157D69B01AC01C501B4019DD44C
:1013C0002D893E894F89588D98D4E9A1FAA161935E
:1013D000719381939193FAA3E9A329A53AA52216C3
:1013E000330609F0AACFE0910A02F0910B020190B6
:1013F000F081E02D89A99AA9ABA9BCA9808391832A
:10140000A283B383E091D001F091D10181E090E01B
:10141000918380838091FB029091FC02A091FD0258
:10142000B091FE020196A11DB11D8093FB02909325
:10143000FC02A093FD02B093FE028091DA0190912C
:10144000DB01A091DC01B091DD01E0910A03F09194
:101450000B0380839183A283B383809103039091D4
:101460000403A0910503B09106030196A11DB11DCF
:101470008093030390930403A0930503B0930603A2
:10148000EC960FB6F894DEBF0FBECDBFDF91CF91C3
:101490001F910F91FF90EF90DF90CF90BF90AF9092
:1014A0009F908F907F906F905F904F903F902F9084
:1014B00008957F928F929F92AF92BF92CF92DF92C8
:1014C000EF92FF920F931F93CF93DF9384E090E00E
:1014D00022D3ACECB1E0E7E0F3E01596FC93EE9399
:1014E00014978AE093E0DF969C938E93DE970FEF3C
:1014F00012E053961C930E93529726E532E0DD9648
:101500003C932E93DC9740E552E050930F024093BA
:101510000E0225EF32E030930D0220930C0227EFEC
:1015200032E0309311022093100222E532E0309332
:1015300013022093120224E532E030931502209327
:101540001402B0933502A09334020A2E1B2E139678
:101550001C920E921124129721E030E031832083F7
:101560002DEE32E06DE572E0E9017983688361E890
:1015700072E07093F0026093EF0265EA72E070939C
:10158000F2026093F10269EC72E07093F4026093EE
:10159000F302E3EEF3E0EA01F983E88317963C9364
:1015A0002E93169710924B0221EA31E019963C9344
:1015B0002E9318972CE033E0DC012D933C938AE0C6
:1015C00097EDA3E2BCE3E80188839983AA83BB83F8
:1015D0001082118212821382A0E0B1E094964D91A4
:1015E0005D916D917C919797448355836683778352
:1015F00058964D915D916D917C915B974087518795
:1016000062877387148615861686178698964D917D
:101610005D916D917C919B97408B518B628B738B0D
:101620005C964D915D916D917C915F97448B558B4C
:10163000668B778B108E118E128E138E9C964D9129
:101640005D916D917C919F97448F558F668F778FB9
:1016500090968D919D910D90BC91A02D80A391A30A
:10166000A2A3B3A3C7E0D4E010925304812C912C21
:10167000540183948092540490925504A09256048D
:10168000B092570461E08CE00E94090177247394C2
:101690007092580410924B0480924C0490924D0426
:1016A000A0924E04B0924F0461E08DE00E940901C7
:1016B0007092500410926B0490E7C92E94E0D92EDA
:1016C000F601108280926C0490926D04A0926E04D8
:1016D000B0926F04E12CF12C8701A80197016BE017
:1016E00070E080E090E00E949301909372048093F8
:1016F0007104D6017C921CAE809244049092450401
:10170000A0924604B092470461E087E00E9409017C
:10171000709248041CAA8DAA9EAAAFAAB8AE61E036
:1017200088E00E94090179AE1092630428E6C22E77
:1017300024E0D22EF6011082809264049092650417
:10174000A0926604B0926704A801970166E070E079
:1017500080E090E00E94930190936A048093690472
:10176000D6017C921CA68DA69EA6AFA6B8AA61E063
:1017700082E00E94090179AA1CA28DA29EA2AFA2BA
:10178000B8A661E084E00E94090179A610925B048A
:1017900030E6C32E34E0D32EF601108280925C0432
:1017A00090925D04A0925E04B0925F04A80197013C
:1017B00063E070E080E090E00E9493019093620407
:1017C00080936104D6017C92188E8091480190919B
:1017D0004901A0914A01B0914B0188A399A3AAA302
:1017E000BBA31D8E898E9A8EAB8EBC8E6FE070E08F
:1017F00080E090E00E94DB009F8F8E8F7D8E1C86A4
:1018000080914C0190914D01A0914E01B0914F01FA
:101810008C8B9D8BAE8BBF8B198A8D869E86AF86F7
:10182000B88A60E170E080E090E00E94DB009B8B72
:101830008A8B798A18828091500190915101A091F0
:101840005201B091530188879987AA87BB871D826F
:1018500089829A82AB82BC8261E170E080E090E094
:101860000E94DB009F838E837D82DF91CF911F9149
:101870000F91FF90EF90DF90CF90BF90AF909F902F
:101880008F907F90089580915304811103C081E06F
:101890008093530480914B04811103C081E08093B5
:1018A0004B0480916B0481112EC081E080936B0406
:1018B00080916C0490916D04A0916E04B0916F04BE
:1018C0000197A105B105F9F4809170048823D9F03E
:1018D0006BE070E080E090E00E944F019093720412
:1018E0008093710440E050E0BA010E9418016BE05F
:1018F00070E080E090E00E944F019093720480932A
:1019000071040E94E40180914304811103C081E0CD
:101910008093430480913B04811103C081E0809354
:101920003B048091630481112EC081E080936304A5
:101930008091640490916504A0916604B09167045D
:101940000197A105B105F9F4809168048823D9F0C5
:1019500066E070E080E090E00E944F0190936A049E
:101960008093690440E050E0BA010E94180166E0EB
:1019700070E080E090E00E944F0190936A048093B1
:1019800069040E94E40180913304811103C081E065
:101990008093330480912B04811103C081E08093F4
:1019A0002B0480915B0481112EC081E080935B0445
:1019B00080915C0490915D04A0915E04B0915F04FD
:1019C0000197A105B105F9F4809160048823D9F04D
:1019D00063E070E080E090E00E944F019093620429
:1019E0008093610440E050E0BA010E94180163E076
:1019F00070E080E090E00E944F0190936204809339
:101A000061040E94E40180911F0481111FC081E0E4
:101A100080931F048091200490912104A0912204BE
:101A2000B09123040197A105B10581F480912404AC
:101A3000882361F06FE070E080E090E00E94970002
:101A400090932604809325040E94FE008091130445
:101A500081111FC081E08093130480911404909140
:101A60001504A0911604B09117040197A105B105C2
:101A700081F480911804882361F060E170E080E0D7
:101A800090E00E94970090931A04809319040E949A
:101A9000FE008091070481111FC081E0809307043C
:101AA0008091080490910904A0910A04B0910B045C
:101AB0000197A105B10581F480910C04882361F0A0
:101AC00061E170E080E090E00E94970090930E0446
:101AD00080930D040C94FE00089560E070E080E8AF
:101AE0009FE7089560E070E080E89FE7089560E078
:101AF00070E080E89FEF089560E070E080E89FEF7D
:101B0000089560E070E080EC9FEF089560E070E081
:101B100080EC9FEF0895F5DF60937F04709380045D
:101B20008093810490938204F1DF60937304709337
:101B300074048093750490937604CFDF60937B04E4
:101B400070937C0480937D0490937E04CBDF60933C
:101B50007704709378048093790490937A04C7DFB4
:101B60006093830470938404809385049093860427
:101B7000C3DF6093870470938804809389049093F3
:101B80008A04089540E855E260E070E090E080E06B
:101B900000C0892B21F426E080E293E01DC5089562
:101BA0001F920F920FB60F9211242F933F934F93D2
:101BB0005F936F937F938F939F93AF93BF93EF93B5
:101BC000FF938FE89DEF909385008093840032D03F
:101BD000FF91EF91BF91AF919F918F917F916F9105
:101BE0005F914F913F912F910F900FBE0F901F90DB
:101BF00018958FE89DEF9093850080938400AFE661
:101C0000B0E08C918E7F8C93E0E8F0E080818C7F57
:101C10008083E1E8F0E08081877E8083808184603A
:101C2000808380818C7F80838C9181608C930895E8
:101C300081E008958091140391E0980F909314032C
:101C4000882349F021E030E03093160320931503F8
:101C500080931403089578940E947E03F8948091F1
:101C600014038150F5CF0F931F93CF93DF931092FE
:101C70008C0410928B04A3D285DFC091A601D09171
:101C8000A7011982188215DCF894B3DF8881998145
:101C9000892B31F481E0FE01E35CFE4F90819111CC
:101CA00080E080938B04789478948E01035C1E4FBF
:101CB00080918B04811109C0E6DDF89490E080E00A
:101CC000DF91CF911F910F91089588819981892B80
:101CD00089F481E0F8019081911101C080E0809346
:101CE0008C0490918C0481E0911180E080938B04AE
:101CF0009FDFDECF81E0F3CF5058BB27AA270ED05D
:101D00005CC14DD130F052D120F031F49F3F11F43D
:101D10001EF442C10EF4E095E7FB0FC1E92F5ED13E
:101D200080F3BA17620773078407950718F071F4F8
:101D30009EF58DC10EF4E0950B2EBA2FA02D0B0150
:101D4000B90190010C01CA01A0011124FF27591B00
:101D500099F0593F50F4503E68F11A16F040A22F06
:101D6000232F342F4427585FF3CF46953795279577
:101D7000A795F0405395C9F77EF41F16BA0B620B76
:101D8000730B840BBAF09150A1F0FF0FBB1F661FBD
:101D9000771F881FC2F70EC0BA0F621F731F841F00
:101DA00048F4879577956795B795F7959E3F08F026
:101DB000B3CF9395880F08F09927EE0F97958795E5
:101DC00008952ED180F09F3740F491110EF440C158
:101DD00060E070E080E89FE3089526F01B16611D27
:101DE000711D811DB0C0CAC084D008F481E008957F
:101DF00004D06894B1112CC10895F8D088F09F5791
:101E000090F0B92F9927B751A0F0D1F0660F771F46
:101E1000881F991F1AF0BA95C9F712C0B13081F026
:101E200016D1B1E0089513C1672F782F8827B85FC6
:101E300039F0B93FCCF3869577956795B395D9F787
:101E40003EF490958095709561957F4F8F4F9F4F91
:101E50000895E89409C097FB3EF49095809570959D
:101E600061957F4F8F4F9F4F9923A9F0F92F96E9E6
:101E7000BB279395F695879577956795B795F1115B
:101E8000F8CFFAF4BB0F11F460FF1BC06F5F7F4FF8
:101E90008F4F9F4F16C0882311F096E911C077230A
:101EA00021F09EE8872F762F05C0662371F096E813
:101EB000862F70E060E02AF09A95660F771F881FE2
:101EC000DAF7880F9695879597F90895A9D080F04D
:101ED0009F3740F491110EF0BBC060E070E080E8E5
:101EE0009FEB089526F41B16611D711D811D2BC0EB
:101EF00045C0990F0008550FAA0BE0E8FEEF161633
:101F00001706E807F907C0F012161306E407F507ED
:101F100098F0621B730B840B950B39F40A2661F061
:101F2000232B242B252B21F408950A2609F4A14004
:101F3000A6958FEF811D811D089597F99F6780E811
:101F400070E060E00895882371F4772321F09850C1
:101F5000872B762F07C0662311F499270DC0905167
:101F6000862B70E060E02AF09A95660F771F881F35
:101F7000DAF7880F9695879597F908959F3F31F086
:101F8000915020F4879577956795B795880F911DA7
:101F90009695879597F908959FEF80EC0895002412
:101FA0000A941616170618060906089500240A94BE
:101FB00012161306140605060895092E0394000C44
:101FC00011F4882352F0BB0F40F4BF2B11F460FFD3
:101FD00004C06F5F7F4F8F4F9F4F089557FD9058FC
:101FE000440F551F59F05F3F71F04795880F97FBDD
:101FF000991F61F09F3F79F0879508951216130697
:102000001406551FF2CF4695F1DF08C016161706C5
:102010001806991FF1CF86957105610508940895FA
:10202000E5DFA0F0BEE7B91788F4BB279F3860F45E
:102030001616B11D672F782F8827985FF7CF8695E2
:1020400077956795B11D93959639C8F30895E894EF
:10205000BB2766277727CB0197F908954ADF08F455
:102060008FEF08950BD0A9CF9ADF28F09FDF18F0EB
:10207000952309F062CF90CF1124EACFAFDFA0F310
:10208000959FD1F3950F50E0551F629FF001729F0D
:10209000BB27F00DB11D639FAA27F00DB11DAA1F2C
:1020A000649F6627B00DA11D661F829F2227B00D79
:1020B000A11D621F739FB00DA11D621F839FA00D04
:1020C000611D221F749F3327A00D611D231F849F54
:1020D000600D211D822F762F6A2F11249F575040AB
:1020E0008AF0E1F088234AF0EE0FFF1FBB1F661F46
:1020F000771F881F91505040A9F79E3F510570F0FF
:102100001CCFA6CF5F3FECF3983EDCF38695779526
:102110006795B795F795E7959F5FC1F7FE2B880FF9
:10212000911D9695879597F908951F920F920FB676
:102130000F9211242F933F938F939F93AF93BF934D
:102140008091180390911903A0911A03B0911B0379
:102150003091170323E0230F2D3758F50196A11D69
:10216000B11D209317038093180390931903A09334
:102170001A03B0931B0380911C0390911D03A0913F
:102180001E03B0911F030196A11DB11D80931C0376
:1021900090931D03A0931E03B0931F03BF91AF91B3
:1021A0009F918F913F912F910F900FBE0F901F9095
:1021B000189526E8230F0296A11DB11DD2CF789461
:1021C00084B5826084BD84B5816084BD85B582603C
:1021D00085BD85B5816085BDEEE6F0E080818160DA
:1021E0008083E1E8F0E010828081826080838081DA
:1021F00081608083E0E8F0E0808181608083E1EBB2
:10220000F0E0808184608083E0EBF0E08081816099
:102210008083EAE7F0E0808184608083808182604F
:102220008083808181608083808180688083109238
:10223000C10008958E3008F08E502091A00190E4E6
:10224000299F900111248770822B80937C008091BC
:102250007A00806480937A0080917A0086FDFCCFBA
:10226000809178009091790008951F93CF93DF9328
:10227000182FEB0161E07DD0209731F460E0812FD1
:10228000DF91CF911F91B1C0CF3FD10511F461E033
:10229000F6CFE12FF0E0E859FF4FE491E33031F160
:1022A00040F4E130B1F0E230E1F0C038D1057CF724
:1022B000E5CFE73029F1E83059F1E430B1F780910A
:1022C0008000806280938000D0938B00C0938A004E
:1022D00004C084B5806884BDC7BDDF91CF911F91D4
:1022E000089584B5806284BDC8BDF7CF8091800019
:1022F000806880938000D0938900C0938800EDCFE0
:102300008091B00080688093B000C093B300E5CFA7
:102310008091B00080628093B000C093B400DDCFA4
:10232000833081F028F4813099F08230A9F008954B
:102330008730A9F08830C9F08430B1F480918000F2
:102340008F7D03C0809180008F77809380000895F7
:1023500084B58F7784BD089584B58F7DFBCF809140
:10236000B0008F778093B00008958091B0008F7D8A
:10237000F9CFCF93DF9390E0FC01E458FF4F249115
:1023800080579F4FFC0184918823C9F090E0880F0B
:10239000991FFC01E255FF4FA591B491FC01EC554A
:1023A000FF4FC591D49161110DC09FB7F8948C91E6
:1023B000209582238C938881282328839FBFDF91D7
:1023C000CF910895623051F49FB7F8943C91822FD9
:1023D000809583238C93E8812E2BEFCF8FB7F894D1
:1023E000EC912E2B2C938FBFEACF1F93CF93DF93CB
:1023F000282F30E0F901E859FF4F8491F901E458A2
:10240000FF4FD491F901E057FF4FC491CC23A1F0C5
:10241000162F811185DFEC2FF0E0EE0FFF1FEC553A
:10242000FF4FA591B4918FB7F894EC91111108C0AA
:10243000D095DE23DC938FBFDF91CF911F9108955C
:10244000DE2BF8CFFC01918D228D892F90E0805CEE
:102450009F4F821B91098F7399270895FC01918DDD
:10246000828D981731F0828DE80FF11D858D90E0F7
:1024700008958FEF9FEF0895FC01918D828D98173D
:1024800061F0A28DAE0FBF2FB11D5D968C91928D24
:102490009F5F9F73928F90E008958FEF9FEF089555
:1024A000FC01538D448D252F30E0842F90E0821B5A
:1024B000930B541710F0CF96089501970895FC01DF
:1024C000A48DA80FB92FB11DA35ABF4F2C91848D95
:1024D00090E001968F739927848FA689B7892C93F2
:1024E000A089B1898C91837080648C93938D848D45
:1024F000981306C00288F389E02D80818F7D808348
:102500000895CF93DF93EC01888D8823B1F0AA89D9
:10251000BB89E889F9898C9185FD03C0808186FD9E
:102520000CC00FB607FCF7CF8C9185FFF2CF8081EE
:1025300085FFEDCFCE01C3DFEACFDF91CF910895C4
:10254000EF92FF920F931F93CF93DF93EC0181E003
:10255000888F9B8D8C8D98131AC0E889F9898081AA
:1025600085FF15C09FB7F894EE89FF896083E889DD
:10257000F98980818370806480839FBF81E090E0CF
:10258000DF91CF911F910F91FF90EF900895F62E5C
:102590000B8D10E00F5F1F4F0F731127E02E8C8DF6
:1025A0008E110BC00FB607FCFACFE889F98980813C
:1025B00085FFF5CFCE0183DFF2CFEB8DEC0FFD2F42
:1025C000F11DE35AFF4FF0829FB7F8940B8FEA8911
:1025D000FB8980818062D0CFCF92DF92EF92FF9211
:1025E0001F93CF93DF93EC016A017B01122FE889DF
:1025F000F98982E08083C11481EED806E104F104F8
:1026000099F060E079E08DE390E0A7019601F5D0C4
:10261000215031094109510956954795379527951C
:10262000211580E1380790F0E889F989108260E887
:1026300074E88EE190E0A7019601DFD021503109C6
:10264000410951095695479537952795EC85FD85A4
:102650003083EE85FF852083188EEC89FD891083F9
:10266000EA89FB89808180618083EA89FB89808196
:1026700088608083EA89FB89808180688083EA8919
:10268000FB8980818F7D8083DF91CF911F91FF90A7
:10269000EF90DF90CF9008951F920F920FB60F9298
:1026A00011242F938F939F93EF93FF93E091300327
:1026B000F09131038081E0913603F091370382FD80
:1026C0001BC09081809139038F5F8F7320913A03F3
:1026D000821741F0E0913903F0E0E05EFC4F958F06
:1026E00080933903FF91EF919F918F912F910F90DC
:1026F0000FBE0F901F9018958081F4CF1F920F92FC
:102700000FB60F9211242F933F934F935F936F93C4
:102710007F938F939F93AF93BF93EF93FF9380E249
:1027200093E0CDDEFF91EF91BF91AF919F918F919B
:102730007F916F915F914F913F912F910F900FBEBD
:102740000F901F901895E0E2F3E01382128288EE5A
:1027500093E0A0E0B0E084839583A683B7838CEAFE
:1027600091E09183808385EC90E09587848784EC69
:1027700090E09787868780EC90E0918B808B81EC4E
:1027800090E0938B828B82EC90E0958B848B86EC2F
:1027900090E0978B868B118E128E138E148E089577
:1027A000AF92BF92CF92DF92EF92FF920F931F935F
:1027B000CF93DF936C017B018B01040F151FEB019D
:1027C0005E01AE18BF08C017D10759F06991D60154
:1027D000ED91FC910190F081E02DC6010995892BC6
:1027E00079F7C501DF91CF911F910F91FF90EF9085
:1027F000DF90CF90BF90AF900895A1E21A2EAA1B50
:10280000BB1BFD010DC0AA1FBB1FEE1FFF1FA217A0
:10281000B307E407F50720F0A21BB30BE40BF50B9D
:10282000661F771F881F991F1A9469F76095709526
:10283000809590959B01AC01BD01CF010895EE0FED
:0E284000FF1F0590F491E02D0994F894FFCF4E
:10284E000000803F0000803F0000803F00000040FD
:10285E0000000040000000400000000000000000EA
:10286E00000000000000000000000000000000005A
:10287E000000C8420000C8420000C8420000A0404C
:10288E000000A0400000A0400AD7233C0AD7233CFA
:10289E000AD7233C0000A0C10000A04100007042F6
:1028AE0000002A43000000000000A0C10000A0416B
:1028BE00000048430000704200002A430000000060
:1028CE000000A0C10000A0410000704200002A4399
:1028DE00000000000B2DB43E0B2DB43E0B2DB43E6C
:1028EE00016F64653300CC0100000000A012D0130C
:0A28FE005012811222123C122E1219
:00000001FF
